{
  "contracts/SimpleMultiSig.sol": {
    "SimpleMultiSig": {
      "abi": [
        {
          "inputs": [
            {
              "internalType": "uint256",
              "name": "threshold_",
              "type": "uint256"
            },
            {
              "internalType": "address[]",
              "name": "owners_",
              "type": "address[]"
            },
            {
              "internalType": "uint256",
              "name": "chainId",
              "type": "uint256"
            }
          ],
          "stateMutability": "nonpayable",
          "type": "constructor"
        },
        {
          "inputs": [],
          "name": "DOMAIN_SEPARATOR",
          "outputs": [
            {
              "internalType": "bytes32",
              "name": "",
              "type": "bytes32"
            }
          ],
          "stateMutability": "view",
          "type": "function"
        },
        {
          "inputs": [
            {
              "internalType": "bytes[]",
              "name": "sig",
              "type": "bytes[]"
            },
            {
              "internalType": "address",
              "name": "destination",
              "type": "address"
            },
            {
              "internalType": "uint256",
              "name": "value",
              "type": "uint256"
            },
            {
              "internalType": "bytes",
              "name": "data",
              "type": "bytes"
            },
            {
              "internalType": "address",
              "name": "executor",
              "type": "address"
            },
            {
              "internalType": "uint256",
              "name": "gasLimit",
              "type": "uint256"
            }
          ],
          "name": "execute",
          "outputs": [],
          "stateMutability": "nonpayable",
          "type": "function"
        },
        {
          "inputs": [],
          "name": "nonce",
          "outputs": [
            {
              "internalType": "uint256",
              "name": "",
              "type": "uint256"
            }
          ],
          "stateMutability": "view",
          "type": "function"
        },
        {
          "inputs": [
            {
              "internalType": "uint256",
              "name": "",
              "type": "uint256"
            }
          ],
          "name": "ownersArr",
          "outputs": [
            {
              "internalType": "address",
              "name": "",
              "type": "address"
            }
          ],
          "stateMutability": "view",
          "type": "function"
        },
        {
          "inputs": [],
          "name": "threshold",
          "outputs": [
            {
              "internalType": "uint256",
              "name": "",
              "type": "uint256"
            }
          ],
          "stateMutability": "view",
          "type": "function"
        },
        {
          "stateMutability": "payable",
          "type": "receive"
        }
      ],
      "evm": {
        "bytecode": {
          "linkReferences": {},
          "object": "60806040523480156200001157600080fd5b50604051620017c0380380620017c0833981810160405281019062000037919062000538565b600a8251111580156200004b575081518311155b8015620000585750600083115b6200006257600080fd5b6000805b835181101562000171578173ffffffffffffffffffffffffffffffffffffffff168482815181106200009d576200009c620005b3565b5b602002602001015173ffffffffffffffffffffffffffffffffffffffff1611620000c657600080fd5b600160026000868481518110620000e257620000e1620005b3565b5b602002602001015173ffffffffffffffffffffffffffffffffffffffff1673ffffffffffffffffffffffffffffffffffffffff16815260200190815260200160002060006101000a81548160ff021916908315150217905550838181518110620001515762000150620005b3565b5b602002602001015191508080620001689062000611565b91505062000066565b5082600390805190602001906200018a92919062000261565b50836001819055507fd87cd6ef79d4e2b95e15ce8abf732db51ec771f1ca2edccf22a46c729ac5647260001b7fb7a0bfa1b79f2443f4d73ebb9259cddbcd510b18be6fc4da7d1aa7b1786e73e660001b7fc89efdaa54c0f20c7adf612882df0950f5a951637e0307cdcb4c672f298b8bc660001b84307f251543af6a222378665a76fe38dbceae4871a070b7fdaf5c6c30cf758dc33cc060001b6040516020016200023b96959493929190620006f6565b604051602081830303815290604052805190602001206004819055505050505062000763565b828054828255906000526020600020908101928215620002dd579160200282015b82811115620002dc5782518260006101000a81548173ffffffffffffffffffffffffffffffffffffffff021916908373ffffffffffffffffffffffffffffffffffffffff1602179055509160200191906001019062000282565b5b509050620002ec9190620002f0565b5090565b5b808211156200030b576000816000905550600101620002f1565b5090565b6000604051905090565b600080fd5b600080fd5b6000819050919050565b620003388162000323565b81146200034457600080fd5b50565b60008151905062000358816200032d565b92915050565b600080fd5b6000601f19601f8301169050919050565b7f4e487b7100000000000000000000000000000000000000000000000000000000600052604160045260246000fd5b620003ae8262000363565b810181811067ffffffffffffffff82111715620003d057620003cf62000374565b5b80604052505050565b6000620003e56200030f565b9050620003f38282620003a3565b919050565b600067ffffffffffffffff82111562000416576200041562000374565b5b602082029050602081019050919050565b600080fd5b600073ffffffffffffffffffffffffffffffffffffffff82169050919050565b600062000459826200042c565b9050919050565b6200046b816200044c565b81146200047757600080fd5b50565b6000815190506200048b8162000460565b92915050565b6000620004a8620004a284620003f8565b620003d9565b90508083825260208201905060208402830185811115620004ce57620004cd62000427565b5b835b81811015620004fb5780620004e688826200047a565b845260208401935050602081019050620004d0565b5050509392505050565b600082601f8301126200051d576200051c6200035e565b5b81516200052f84826020860162000491565b91505092915050565b60008060006060848603121562000554576200055362000319565b5b6000620005648682870162000347565b935050602084015167ffffffffffffffff8111156200058857620005876200031e565b5b620005968682870162000505565b9250506040620005a98682870162000347565b9150509250925092565b7f4e487b7100000000000000000000000000000000000000000000000000000000600052603260045260246000fd5b7f4e487b7100000000000000000000000000000000000000000000000000000000600052601160045260246000fd5b60006200061e8262000323565b91507fffffffffffffffffffffffffffffffffffffffffffffffffffffffffffffffff821415620006545762000653620005e2565b5b600182019050919050565b6000819050919050565b62000674816200065f565b82525050565b620006858162000323565b82525050565b6000819050919050565b6000620006b6620006b0620006aa846200042c565b6200068b565b6200042c565b9050919050565b6000620006ca8262000695565b9050919050565b6000620006de82620006bd565b9050919050565b620006f081620006d1565b82525050565b600060c0820190506200070d600083018962000669565b6200071c602083018862000669565b6200072b604083018762000669565b6200073a60608301866200067a565b620007496080830185620006e5565b6200075860a083018462000669565b979650505050505050565b61104d80620007736000396000f3fe60806040526004361061004e5760003560e01c80633644e5151461005a57806342cde4e814610085578063aa5df9e2146100b0578063affed0e0146100ed578063e1914eba1461011857610055565b3661005557005b600080fd5b34801561006657600080fd5b5061006f610141565b60405161007c919061060f565b60405180910390f35b34801561009157600080fd5b5061009a610147565b6040516100a79190610643565b60405180910390f35b3480156100bc57600080fd5b506100d760048036038101906100d2919061069e565b61014d565b6040516100e4919061070c565b60405180910390f35b3480156100f957600080fd5b5061010261018c565b60405161010f9190610643565b60405180910390f35b34801561012457600080fd5b5061013f600480360381019061013a919061097f565b610192565b005b60045481565b60015481565b6003818154811061015d57600080fd5b906000526020600020016000915054906101000a900473ffffffffffffffffffffffffffffffffffffffff1681565b60005481565b6001548651146101d7576040517f08c379a00000000000000000000000000000000000000000000000000000000081526004016101ce90610ac7565b60405180910390fd5b3373ffffffffffffffffffffffffffffffffffffffff168273ffffffffffffffffffffffffffffffffffffffff16148061023d5750600073ffffffffffffffffffffffffffffffffffffffff168273ffffffffffffffffffffffffffffffffffffffff16145b61027c576040517f08c379a000000000000000000000000000000000000000000000000000000000815260040161027390610b59565b60405180910390fd5b6001151561028e87878787878761033e565b1515146102d0576040517f08c379a00000000000000000000000000000000000000000000000000000000081526004016102c790610bc5565b60405180910390fd5b60016000546102df9190610c14565b60008190555060008080855160208701888a87f1905080610335576040517f08c379a000000000000000000000000000000000000000000000000000000000815260040161032c90610cb6565b60405180910390fd5b50505050505050565b6000807f3ee892349ae4bbe61dce18f95115b5dc02daf49204cc602458cd4c1f540d56d760001b87878780519060200120600054888860405160200161038a9796959493929190610cd6565b6040516020818303038152906040528051906020012090506000600454826040516020016103b9929190610dbd565b60405160208183030381529060405280519060200120905060006103dc82610594565b90506000805b6001548110156105815760008060006104148f858151811061040757610406610df4565b5b60200260200101516105c4565b92509250925060006001878585856040516000815260200160405260405161043f9493929190610e3f565b6020604051602081039080840390855afa158015610461573d6000803e3d6000fd5b5050506020604051035190508573ffffffffffffffffffffffffffffffffffffffff168173ffffffffffffffffffffffffffffffffffffffff16116104db576040517f08c379a00000000000000000000000000000000000000000000000000000000081526004016104d290610ed0565b60405180910390fd5b600260008273ffffffffffffffffffffffffffffffffffffffff1673ffffffffffffffffffffffffffffffffffffffff16815260200190815260200160002060009054906101000a900460ff16610567576040517f08c379a000000000000000000000000000000000000000000000000000000000815260040161055e90610f3c565b60405180910390fd5b80955050505050808061057990610f5c565b9150506103e2565b5060019450505050509695505050505050565b6000816040516020016105a79190610ff1565b604051602081830303815290604052805190602001209050919050565b600080600060418451146105d757600080fd5b6020840151915060408401519050606084015160001a92509193909250565b6000819050919050565b610609816105f6565b82525050565b60006020820190506106246000830184610600565b92915050565b6000819050919050565b61063d8161062a565b82525050565b60006020820190506106586000830184610634565b92915050565b6000604051905090565b600080fd5b600080fd5b61067b8161062a565b811461068657600080fd5b50565b60008135905061069881610672565b92915050565b6000602082840312156106b4576106b3610668565b5b60006106c284828501610689565b91505092915050565b600073ffffffffffffffffffffffffffffffffffffffff82169050919050565b60006106f6826106cb565b9050919050565b610706816106eb565b82525050565b600060208201905061072160008301846106fd565b92915050565b600080fd5b6000601f19601f8301169050919050565b7f4e487b7100000000000000000000000000000000000000000000000000000000600052604160045260246000fd5b6107758261072c565b810181811067ffffffffffffffff821117156107945761079361073d565b5b80604052505050565b60006107a761065e565b90506107b3828261076c565b919050565b600067ffffffffffffffff8211156107d3576107d261073d565b5b602082029050602081019050919050565b600080fd5b600080fd5b600067ffffffffffffffff8211156108095761080861073d565b5b6108128261072c565b9050602081019050919050565b82818337600083830152505050565b600061084161083c846107ee565b61079d565b90508281526020810184848401111561085d5761085c6107e9565b5b61086884828561081f565b509392505050565b600082601f83011261088557610884610727565b5b813561089584826020860161082e565b91505092915050565b60006108b16108ac846107b8565b61079d565b905080838252602082019050602084028301858111156108d4576108d36107e4565b5b835b8181101561091b57803567ffffffffffffffff8111156108f9576108f8610727565b5b8086016109068982610870565b855260208501945050506020810190506108d6565b5050509392505050565b600082601f83011261093a57610939610727565b5b813561094a84826020860161089e565b91505092915050565b61095c816106eb565b811461096757600080fd5b50565b60008135905061097981610953565b92915050565b60008060008060008060c0878903121561099c5761099b610668565b5b600087013567ffffffffffffffff8111156109ba576109b961066d565b5b6109c689828a01610925565b96505060206109d789828a0161096a565b95505060406109e889828a01610689565b945050606087013567ffffffffffffffff811115610a0957610a0861066d565b5b610a1589828a01610870565b9350506080610a2689828a0161096a565b92505060a0610a3789828a01610689565b9150509295509295509295565b600082825260208201905092915050565b7f657865637574653a20736967522e6c656e677468203d3d207468726573686f6c60008201527f6420000000000000000000000000000000000000000000000000000000000000602082015250565b6000610ab1602283610a44565b9150610abc82610a55565b604082019050919050565b60006020820190508181036000830152610ae081610aa4565b9050919050565b7f657865637574653a206578656375746f72203d3d206d73672e73656e6465722060008201527f7c7c206578656375746f72203d3d206164647265737328302900000000000000602082015250565b6000610b43603983610a44565b9150610b4e82610ae7565b604082019050919050565b60006020820190508181036000830152610b7281610b36565b9050919050565b7f657865637574653a207265636f7665724d756c7469203d3d2066616c73650000600082015250565b6000610baf601e83610a44565b9150610bba82610b79565b602082019050919050565b60006020820190508181036000830152610bde81610ba2565b9050919050565b7f4e487b7100000000000000000000000000000000000000000000000000000000600052601160045260246000fd5b6000610c1f8261062a565b9150610c2a8361062a565b9250827fffffffffffffffffffffffffffffffffffffffffffffffffffffffffffffffff03821115610c5f57610c5e610be5565b5b828201905092915050565b7f657865637574653a207375636365737320000000000000000000000000000000600082015250565b6000610ca0601183610a44565b9150610cab82610c6a565b602082019050919050565b60006020820190508181036000830152610ccf81610c93565b9050919050565b600060e082019050610ceb600083018a610600565b610cf860208301896106fd565b610d056040830188610634565b610d126060830187610600565b610d1f6080830186610634565b610d2c60a08301856106fd565b610d3960c0830184610634565b98975050505050505050565b600081905092915050565b7f1901000000000000000000000000000000000000000000000000000000000000600082015250565b6000610d86600283610d45565b9150610d9182610d50565b600282019050919050565b6000819050919050565b610db7610db2826105f6565b610d9c565b82525050565b6000610dc882610d79565b9150610dd48285610da6565b602082019150610de48284610da6565b6020820191508190509392505050565b7f4e487b7100000000000000000000000000000000000000000000000000000000600052603260045260246000fd5b600060ff82169050919050565b610e3981610e23565b82525050565b6000608082019050610e546000830187610600565b610e616020830186610e30565b610e6e6040830185610600565b610e7b6060830184610600565b95945050505050565b7f657865637574653a207265636f7665726564203e206c61737441646420000000600082015250565b6000610eba601d83610a44565b9150610ec582610e84565b602082019050919050565b60006020820190508181036000830152610ee981610ead565b9050919050565b7f657865637574653a2069734f776e65725b7265636f76657265645d0000000000600082015250565b6000610f26601b83610a44565b9150610f3182610ef0565b602082019050919050565b60006020820190508181036000830152610f5581610f19565b9050919050565b6000610f678261062a565b91507fffffffffffffffffffffffffffffffffffffffffffffffffffffffffffffffff821415610f9a57610f99610be5565b5b600182019050919050565b7f19457468657265756d205369676e6564204d6573736167653a0a333200000000600082015250565b6000610fdb601c83610d45565b9150610fe682610fa5565b601c82019050919050565b6000610ffc82610fce565b91506110088284610da6565b6020820191508190509291505056fea26469706673582212203595970e0e01240e99b8a5d0878ac93d9ac1268c044e5b57a3560925b0429ad364736f6c634300080c0033",
          "opcodes": "PUSH1 0x80 PUSH1 0x40 MSTORE CALLVALUE DUP1 ISZERO PUSH3 0x11 JUMPI PUSH1 0x0 DUP1 REVERT JUMPDEST POP PUSH1 0x40 MLOAD PUSH3 0x17C0 CODESIZE SUB DUP1 PUSH3 0x17C0 DUP4 CODECOPY DUP2 DUP2 ADD PUSH1 0x40 MSTORE DUP2 ADD SWAP1 PUSH3 0x37 SWAP2 SWAP1 PUSH3 0x538 JUMP JUMPDEST PUSH1 0xA DUP3 MLOAD GT ISZERO DUP1 ISZERO PUSH3 0x4B JUMPI POP DUP2 MLOAD DUP4 GT ISZERO JUMPDEST DUP1 ISZERO PUSH3 0x58 JUMPI POP PUSH1 0x0 DUP4 GT JUMPDEST PUSH3 0x62 JUMPI PUSH1 0x0 DUP1 REVERT JUMPDEST PUSH1 0x0 DUP1 JUMPDEST DUP4 MLOAD DUP2 LT ISZERO PUSH3 0x171 JUMPI DUP2 PUSH20 0xFFFFFFFFFFFFFFFFFFFFFFFFFFFFFFFFFFFFFFFF AND DUP5 DUP3 DUP2 MLOAD DUP2 LT PUSH3 0x9D JUMPI PUSH3 0x9C PUSH3 0x5B3 JUMP JUMPDEST JUMPDEST PUSH1 0x20 MUL PUSH1 0x20 ADD ADD MLOAD PUSH20 0xFFFFFFFFFFFFFFFFFFFFFFFFFFFFFFFFFFFFFFFF AND GT PUSH3 0xC6 JUMPI PUSH1 0x0 DUP1 REVERT JUMPDEST PUSH1 0x1 PUSH1 0x2 PUSH1 0x0 DUP7 DUP5 DUP2 MLOAD DUP2 LT PUSH3 0xE2 JUMPI PUSH3 0xE1 PUSH3 0x5B3 JUMP JUMPDEST JUMPDEST PUSH1 0x20 MUL PUSH1 0x20 ADD ADD MLOAD PUSH20 0xFFFFFFFFFFFFFFFFFFFFFFFFFFFFFFFFFFFFFFFF AND PUSH20 0xFFFFFFFFFFFFFFFFFFFFFFFFFFFFFFFFFFFFFFFF AND DUP2 MSTORE PUSH1 0x20 ADD SWAP1 DUP2 MSTORE PUSH1 0x20 ADD PUSH1 0x0 KECCAK256 PUSH1 0x0 PUSH2 0x100 EXP DUP2 SLOAD DUP2 PUSH1 0xFF MUL NOT AND SWAP1 DUP4 ISZERO ISZERO MUL OR SWAP1 SSTORE POP DUP4 DUP2 DUP2 MLOAD DUP2 LT PUSH3 0x151 JUMPI PUSH3 0x150 PUSH3 0x5B3 JUMP JUMPDEST JUMPDEST PUSH1 0x20 MUL PUSH1 0x20 ADD ADD MLOAD SWAP2 POP DUP1 DUP1 PUSH3 0x168 SWAP1 PUSH3 0x611 JUMP JUMPDEST SWAP2 POP POP PUSH3 0x66 JUMP JUMPDEST POP DUP3 PUSH1 0x3 SWAP1 DUP1 MLOAD SWAP1 PUSH1 0x20 ADD SWAP1 PUSH3 0x18A SWAP3 SWAP2 SWAP1 PUSH3 0x261 JUMP JUMPDEST POP DUP4 PUSH1 0x1 DUP2 SWAP1 SSTORE POP PUSH32 0xD87CD6EF79D4E2B95E15CE8ABF732DB51EC771F1CA2EDCCF22A46C729AC56472 PUSH1 0x0 SHL PUSH32 0xB7A0BFA1B79F2443F4D73EBB9259CDDBCD510B18BE6FC4DA7D1AA7B1786E73E6 PUSH1 0x0 SHL PUSH32 0xC89EFDAA54C0F20C7ADF612882DF0950F5A951637E0307CDCB4C672F298B8BC6 PUSH1 0x0 SHL DUP5 ADDRESS PUSH32 0x251543AF6A222378665A76FE38DBCEAE4871A070B7FDAF5C6C30CF758DC33CC0 PUSH1 0x0 SHL PUSH1 0x40 MLOAD PUSH1 0x20 ADD PUSH3 0x23B SWAP7 SWAP6 SWAP5 SWAP4 SWAP3 SWAP2 SWAP1 PUSH3 0x6F6 JUMP JUMPDEST PUSH1 0x40 MLOAD PUSH1 0x20 DUP2 DUP4 SUB SUB DUP2 MSTORE SWAP1 PUSH1 0x40 MSTORE DUP1 MLOAD SWAP1 PUSH1 0x20 ADD KECCAK256 PUSH1 0x4 DUP2 SWAP1 SSTORE POP POP POP POP POP PUSH3 0x763 JUMP JUMPDEST DUP3 DUP1 SLOAD DUP3 DUP3 SSTORE SWAP1 PUSH1 0x0 MSTORE PUSH1 0x20 PUSH1 0x0 KECCAK256 SWAP1 DUP2 ADD SWAP3 DUP3 ISZERO PUSH3 0x2DD JUMPI SWAP2 PUSH1 0x20 MUL DUP3 ADD JUMPDEST DUP3 DUP2 GT ISZERO PUSH3 0x2DC JUMPI DUP3 MLOAD DUP3 PUSH1 0x0 PUSH2 0x100 EXP DUP2 SLOAD DUP2 PUSH20 0xFFFFFFFFFFFFFFFFFFFFFFFFFFFFFFFFFFFFFFFF MUL NOT AND SWAP1 DUP4 PUSH20 0xFFFFFFFFFFFFFFFFFFFFFFFFFFFFFFFFFFFFFFFF AND MUL OR SWAP1 SSTORE POP SWAP2 PUSH1 0x20 ADD SWAP2 SWAP1 PUSH1 0x1 ADD SWAP1 PUSH3 0x282 JUMP JUMPDEST JUMPDEST POP SWAP1 POP PUSH3 0x2EC SWAP2 SWAP1 PUSH3 0x2F0 JUMP JUMPDEST POP SWAP1 JUMP JUMPDEST JUMPDEST DUP1 DUP3 GT ISZERO PUSH3 0x30B JUMPI PUSH1 0x0 DUP2 PUSH1 0x0 SWAP1 SSTORE POP PUSH1 0x1 ADD PUSH3 0x2F1 JUMP JUMPDEST POP SWAP1 JUMP JUMPDEST PUSH1 0x0 PUSH1 0x40 MLOAD SWAP1 POP SWAP1 JUMP JUMPDEST PUSH1 0x0 DUP1 REVERT JUMPDEST PUSH1 0x0 DUP1 REVERT JUMPDEST PUSH1 0x0 DUP2 SWAP1 POP SWAP2 SWAP1 POP JUMP JUMPDEST PUSH3 0x338 DUP2 PUSH3 0x323 JUMP JUMPDEST DUP2 EQ PUSH3 0x344 JUMPI PUSH1 0x0 DUP1 REVERT JUMPDEST POP JUMP JUMPDEST PUSH1 0x0 DUP2 MLOAD SWAP1 POP PUSH3 0x358 DUP2 PUSH3 0x32D JUMP JUMPDEST SWAP3 SWAP2 POP POP JUMP JUMPDEST PUSH1 0x0 DUP1 REVERT JUMPDEST PUSH1 0x0 PUSH1 0x1F NOT PUSH1 0x1F DUP4 ADD AND SWAP1 POP SWAP2 SWAP1 POP JUMP JUMPDEST PUSH32 0x4E487B7100000000000000000000000000000000000000000000000000000000 PUSH1 0x0 MSTORE PUSH1 0x41 PUSH1 0x4 MSTORE PUSH1 0x24 PUSH1 0x0 REVERT JUMPDEST PUSH3 0x3AE DUP3 PUSH3 0x363 JUMP JUMPDEST DUP2 ADD DUP2 DUP2 LT PUSH8 0xFFFFFFFFFFFFFFFF DUP3 GT OR ISZERO PUSH3 0x3D0 JUMPI PUSH3 0x3CF PUSH3 0x374 JUMP JUMPDEST JUMPDEST DUP1 PUSH1 0x40 MSTORE POP POP POP JUMP JUMPDEST PUSH1 0x0 PUSH3 0x3E5 PUSH3 0x30F JUMP JUMPDEST SWAP1 POP PUSH3 0x3F3 DUP3 DUP3 PUSH3 0x3A3 JUMP JUMPDEST SWAP2 SWAP1 POP JUMP JUMPDEST PUSH1 0x0 PUSH8 0xFFFFFFFFFFFFFFFF DUP3 GT ISZERO PUSH3 0x416 JUMPI PUSH3 0x415 PUSH3 0x374 JUMP JUMPDEST JUMPDEST PUSH1 0x20 DUP3 MUL SWAP1 POP PUSH1 0x20 DUP2 ADD SWAP1 POP SWAP2 SWAP1 POP JUMP JUMPDEST PUSH1 0x0 DUP1 REVERT JUMPDEST PUSH1 0x0 PUSH20 0xFFFFFFFFFFFFFFFFFFFFFFFFFFFFFFFFFFFFFFFF DUP3 AND SWAP1 POP SWAP2 SWAP1 POP JUMP JUMPDEST PUSH1 0x0 PUSH3 0x459 DUP3 PUSH3 0x42C JUMP JUMPDEST SWAP1 POP SWAP2 SWAP1 POP JUMP JUMPDEST PUSH3 0x46B DUP2 PUSH3 0x44C JUMP JUMPDEST DUP2 EQ PUSH3 0x477 JUMPI PUSH1 0x0 DUP1 REVERT JUMPDEST POP JUMP JUMPDEST PUSH1 0x0 DUP2 MLOAD SWAP1 POP PUSH3 0x48B DUP2 PUSH3 0x460 JUMP JUMPDEST SWAP3 SWAP2 POP POP JUMP JUMPDEST PUSH1 0x0 PUSH3 0x4A8 PUSH3 0x4A2 DUP5 PUSH3 0x3F8 JUMP JUMPDEST PUSH3 0x3D9 JUMP JUMPDEST SWAP1 POP DUP1 DUP4 DUP3 MSTORE PUSH1 0x20 DUP3 ADD SWAP1 POP PUSH1 0x20 DUP5 MUL DUP4 ADD DUP6 DUP2 GT ISZERO PUSH3 0x4CE JUMPI PUSH3 0x4CD PUSH3 0x427 JUMP JUMPDEST JUMPDEST DUP4 JUMPDEST DUP2 DUP2 LT ISZERO PUSH3 0x4FB JUMPI DUP1 PUSH3 0x4E6 DUP9 DUP3 PUSH3 0x47A JUMP JUMPDEST DUP5 MSTORE PUSH1 0x20 DUP5 ADD SWAP4 POP POP PUSH1 0x20 DUP2 ADD SWAP1 POP PUSH3 0x4D0 JUMP JUMPDEST POP POP POP SWAP4 SWAP3 POP POP POP JUMP JUMPDEST PUSH1 0x0 DUP3 PUSH1 0x1F DUP4 ADD SLT PUSH3 0x51D JUMPI PUSH3 0x51C PUSH3 0x35E JUMP JUMPDEST JUMPDEST DUP2 MLOAD PUSH3 0x52F DUP5 DUP3 PUSH1 0x20 DUP7 ADD PUSH3 0x491 JUMP JUMPDEST SWAP2 POP POP SWAP3 SWAP2 POP POP JUMP JUMPDEST PUSH1 0x0 DUP1 PUSH1 0x0 PUSH1 0x60 DUP5 DUP7 SUB SLT ISZERO PUSH3 0x554 JUMPI PUSH3 0x553 PUSH3 0x319 JUMP JUMPDEST JUMPDEST PUSH1 0x0 PUSH3 0x564 DUP7 DUP3 DUP8 ADD PUSH3 0x347 JUMP JUMPDEST SWAP4 POP POP PUSH1 0x20 DUP5 ADD MLOAD PUSH8 0xFFFFFFFFFFFFFFFF DUP2 GT ISZERO PUSH3 0x588 JUMPI PUSH3 0x587 PUSH3 0x31E JUMP JUMPDEST JUMPDEST PUSH3 0x596 DUP7 DUP3 DUP8 ADD PUSH3 0x505 JUMP JUMPDEST SWAP3 POP POP PUSH1 0x40 PUSH3 0x5A9 DUP7 DUP3 DUP8 ADD PUSH3 0x347 JUMP JUMPDEST SWAP2 POP POP SWAP3 POP SWAP3 POP SWAP3 JUMP JUMPDEST PUSH32 0x4E487B7100000000000000000000000000000000000000000000000000000000 PUSH1 0x0 MSTORE PUSH1 0x32 PUSH1 0x4 MSTORE PUSH1 0x24 PUSH1 0x0 REVERT JUMPDEST PUSH32 0x4E487B7100000000000000000000000000000000000000000000000000000000 PUSH1 0x0 MSTORE PUSH1 0x11 PUSH1 0x4 MSTORE PUSH1 0x24 PUSH1 0x0 REVERT JUMPDEST PUSH1 0x0 PUSH3 0x61E DUP3 PUSH3 0x323 JUMP JUMPDEST SWAP2 POP PUSH32 0xFFFFFFFFFFFFFFFFFFFFFFFFFFFFFFFFFFFFFFFFFFFFFFFFFFFFFFFFFFFFFFFF DUP3 EQ ISZERO PUSH3 0x654 JUMPI PUSH3 0x653 PUSH3 0x5E2 JUMP JUMPDEST JUMPDEST PUSH1 0x1 DUP3 ADD SWAP1 POP SWAP2 SWAP1 POP JUMP JUMPDEST PUSH1 0x0 DUP2 SWAP1 POP SWAP2 SWAP1 POP JUMP JUMPDEST PUSH3 0x674 DUP2 PUSH3 0x65F JUMP JUMPDEST DUP3 MSTORE POP POP JUMP JUMPDEST PUSH3 0x685 DUP2 PUSH3 0x323 JUMP JUMPDEST DUP3 MSTORE POP POP JUMP JUMPDEST PUSH1 0x0 DUP2 SWAP1 POP SWAP2 SWAP1 POP JUMP JUMPDEST PUSH1 0x0 PUSH3 0x6B6 PUSH3 0x6B0 PUSH3 0x6AA DUP5 PUSH3 0x42C JUMP JUMPDEST PUSH3 0x68B JUMP JUMPDEST PUSH3 0x42C JUMP JUMPDEST SWAP1 POP SWAP2 SWAP1 POP JUMP JUMPDEST PUSH1 0x0 PUSH3 0x6CA DUP3 PUSH3 0x695 JUMP JUMPDEST SWAP1 POP SWAP2 SWAP1 POP JUMP JUMPDEST PUSH1 0x0 PUSH3 0x6DE DUP3 PUSH3 0x6BD JUMP JUMPDEST SWAP1 POP SWAP2 SWAP1 POP JUMP JUMPDEST PUSH3 0x6F0 DUP2 PUSH3 0x6D1 JUMP JUMPDEST DUP3 MSTORE POP POP JUMP JUMPDEST PUSH1 0x0 PUSH1 0xC0 DUP3 ADD SWAP1 POP PUSH3 0x70D PUSH1 0x0 DUP4 ADD DUP10 PUSH3 0x669 JUMP JUMPDEST PUSH3 0x71C PUSH1 0x20 DUP4 ADD DUP9 PUSH3 0x669 JUMP JUMPDEST PUSH3 0x72B PUSH1 0x40 DUP4 ADD DUP8 PUSH3 0x669 JUMP JUMPDEST PUSH3 0x73A PUSH1 0x60 DUP4 ADD DUP7 PUSH3 0x67A JUMP JUMPDEST PUSH3 0x749 PUSH1 0x80 DUP4 ADD DUP6 PUSH3 0x6E5 JUMP JUMPDEST PUSH3 0x758 PUSH1 0xA0 DUP4 ADD DUP5 PUSH3 0x669 JUMP JUMPDEST SWAP8 SWAP7 POP POP POP POP POP POP POP JUMP JUMPDEST PUSH2 0x104D DUP1 PUSH3 0x773 PUSH1 0x0 CODECOPY PUSH1 0x0 RETURN INVALID PUSH1 0x80 PUSH1 0x40 MSTORE PUSH1 0x4 CALLDATASIZE LT PUSH2 0x4E JUMPI PUSH1 0x0 CALLDATALOAD PUSH1 0xE0 SHR DUP1 PUSH4 0x3644E515 EQ PUSH2 0x5A JUMPI DUP1 PUSH4 0x42CDE4E8 EQ PUSH2 0x85 JUMPI DUP1 PUSH4 0xAA5DF9E2 EQ PUSH2 0xB0 JUMPI DUP1 PUSH4 0xAFFED0E0 EQ PUSH2 0xED JUMPI DUP1 PUSH4 0xE1914EBA EQ PUSH2 0x118 JUMPI PUSH2 0x55 JUMP JUMPDEST CALLDATASIZE PUSH2 0x55 JUMPI STOP JUMPDEST PUSH1 0x0 DUP1 REVERT JUMPDEST CALLVALUE DUP1 ISZERO PUSH2 0x66 JUMPI PUSH1 0x0 DUP1 REVERT JUMPDEST POP PUSH2 0x6F PUSH2 0x141 JUMP JUMPDEST PUSH1 0x40 MLOAD PUSH2 0x7C SWAP2 SWAP1 PUSH2 0x60F JUMP JUMPDEST PUSH1 0x40 MLOAD DUP1 SWAP2 SUB SWAP1 RETURN JUMPDEST CALLVALUE DUP1 ISZERO PUSH2 0x91 JUMPI PUSH1 0x0 DUP1 REVERT JUMPDEST POP PUSH2 0x9A PUSH2 0x147 JUMP JUMPDEST PUSH1 0x40 MLOAD PUSH2 0xA7 SWAP2 SWAP1 PUSH2 0x643 JUMP JUMPDEST PUSH1 0x40 MLOAD DUP1 SWAP2 SUB SWAP1 RETURN JUMPDEST CALLVALUE DUP1 ISZERO PUSH2 0xBC JUMPI PUSH1 0x0 DUP1 REVERT JUMPDEST POP PUSH2 0xD7 PUSH1 0x4 DUP1 CALLDATASIZE SUB DUP2 ADD SWAP1 PUSH2 0xD2 SWAP2 SWAP1 PUSH2 0x69E JUMP JUMPDEST PUSH2 0x14D JUMP JUMPDEST PUSH1 0x40 MLOAD PUSH2 0xE4 SWAP2 SWAP1 PUSH2 0x70C JUMP JUMPDEST PUSH1 0x40 MLOAD DUP1 SWAP2 SUB SWAP1 RETURN JUMPDEST CALLVALUE DUP1 ISZERO PUSH2 0xF9 JUMPI PUSH1 0x0 DUP1 REVERT JUMPDEST POP PUSH2 0x102 PUSH2 0x18C JUMP JUMPDEST PUSH1 0x40 MLOAD PUSH2 0x10F SWAP2 SWAP1 PUSH2 0x643 JUMP JUMPDEST PUSH1 0x40 MLOAD DUP1 SWAP2 SUB SWAP1 RETURN JUMPDEST CALLVALUE DUP1 ISZERO PUSH2 0x124 JUMPI PUSH1 0x0 DUP1 REVERT JUMPDEST POP PUSH2 0x13F PUSH1 0x4 DUP1 CALLDATASIZE SUB DUP2 ADD SWAP1 PUSH2 0x13A SWAP2 SWAP1 PUSH2 0x97F JUMP JUMPDEST PUSH2 0x192 JUMP JUMPDEST STOP JUMPDEST PUSH1 0x4 SLOAD DUP2 JUMP JUMPDEST PUSH1 0x1 SLOAD DUP2 JUMP JUMPDEST PUSH1 0x3 DUP2 DUP2 SLOAD DUP2 LT PUSH2 0x15D JUMPI PUSH1 0x0 DUP1 REVERT JUMPDEST SWAP1 PUSH1 0x0 MSTORE PUSH1 0x20 PUSH1 0x0 KECCAK256 ADD PUSH1 0x0 SWAP2 POP SLOAD SWAP1 PUSH2 0x100 EXP SWAP1 DIV PUSH20 0xFFFFFFFFFFFFFFFFFFFFFFFFFFFFFFFFFFFFFFFF AND DUP2 JUMP JUMPDEST PUSH1 0x0 SLOAD DUP2 JUMP JUMPDEST PUSH1 0x1 SLOAD DUP7 MLOAD EQ PUSH2 0x1D7 JUMPI PUSH1 0x40 MLOAD PUSH32 0x8C379A000000000000000000000000000000000000000000000000000000000 DUP2 MSTORE PUSH1 0x4 ADD PUSH2 0x1CE SWAP1 PUSH2 0xAC7 JUMP JUMPDEST PUSH1 0x40 MLOAD DUP1 SWAP2 SUB SWAP1 REVERT JUMPDEST CALLER PUSH20 0xFFFFFFFFFFFFFFFFFFFFFFFFFFFFFFFFFFFFFFFF AND DUP3 PUSH20 0xFFFFFFFFFFFFFFFFFFFFFFFFFFFFFFFFFFFFFFFF AND EQ DUP1 PUSH2 0x23D JUMPI POP PUSH1 0x0 PUSH20 0xFFFFFFFFFFFFFFFFFFFFFFFFFFFFFFFFFFFFFFFF AND DUP3 PUSH20 0xFFFFFFFFFFFFFFFFFFFFFFFFFFFFFFFFFFFFFFFF AND EQ JUMPDEST PUSH2 0x27C JUMPI PUSH1 0x40 MLOAD PUSH32 0x8C379A000000000000000000000000000000000000000000000000000000000 DUP2 MSTORE PUSH1 0x4 ADD PUSH2 0x273 SWAP1 PUSH2 0xB59 JUMP JUMPDEST PUSH1 0x40 MLOAD DUP1 SWAP2 SUB SWAP1 REVERT JUMPDEST PUSH1 0x1 ISZERO ISZERO PUSH2 0x28E DUP8 DUP8 DUP8 DUP8 DUP8 DUP8 PUSH2 0x33E JUMP JUMPDEST ISZERO ISZERO EQ PUSH2 0x2D0 JUMPI PUSH1 0x40 MLOAD PUSH32 0x8C379A000000000000000000000000000000000000000000000000000000000 DUP2 MSTORE PUSH1 0x4 ADD PUSH2 0x2C7 SWAP1 PUSH2 0xBC5 JUMP JUMPDEST PUSH1 0x40 MLOAD DUP1 SWAP2 SUB SWAP1 REVERT JUMPDEST PUSH1 0x1 PUSH1 0x0 SLOAD PUSH2 0x2DF SWAP2 SWAP1 PUSH2 0xC14 JUMP JUMPDEST PUSH1 0x0 DUP2 SWAP1 SSTORE POP PUSH1 0x0 DUP1 DUP1 DUP6 MLOAD PUSH1 0x20 DUP8 ADD DUP9 DUP11 DUP8 CALL SWAP1 POP DUP1 PUSH2 0x335 JUMPI PUSH1 0x40 MLOAD PUSH32 0x8C379A000000000000000000000000000000000000000000000000000000000 DUP2 MSTORE PUSH1 0x4 ADD PUSH2 0x32C SWAP1 PUSH2 0xCB6 JUMP JUMPDEST PUSH1 0x40 MLOAD DUP1 SWAP2 SUB SWAP1 REVERT JUMPDEST POP POP POP POP POP POP POP JUMP JUMPDEST PUSH1 0x0 DUP1 PUSH32 0x3EE892349AE4BBE61DCE18F95115B5DC02DAF49204CC602458CD4C1F540D56D7 PUSH1 0x0 SHL DUP8 DUP8 DUP8 DUP1 MLOAD SWAP1 PUSH1 0x20 ADD KECCAK256 PUSH1 0x0 SLOAD DUP9 DUP9 PUSH1 0x40 MLOAD PUSH1 0x20 ADD PUSH2 0x38A SWAP8 SWAP7 SWAP6 SWAP5 SWAP4 SWAP3 SWAP2 SWAP1 PUSH2 0xCD6 JUMP JUMPDEST PUSH1 0x40 MLOAD PUSH1 0x20 DUP2 DUP4 SUB SUB DUP2 MSTORE SWAP1 PUSH1 0x40 MSTORE DUP1 MLOAD SWAP1 PUSH1 0x20 ADD KECCAK256 SWAP1 POP PUSH1 0x0 PUSH1 0x4 SLOAD DUP3 PUSH1 0x40 MLOAD PUSH1 0x20 ADD PUSH2 0x3B9 SWAP3 SWAP2 SWAP1 PUSH2 0xDBD JUMP JUMPDEST PUSH1 0x40 MLOAD PUSH1 0x20 DUP2 DUP4 SUB SUB DUP2 MSTORE SWAP1 PUSH1 0x40 MSTORE DUP1 MLOAD SWAP1 PUSH1 0x20 ADD KECCAK256 SWAP1 POP PUSH1 0x0 PUSH2 0x3DC DUP3 PUSH2 0x594 JUMP JUMPDEST SWAP1 POP PUSH1 0x0 DUP1 JUMPDEST PUSH1 0x1 SLOAD DUP2 LT ISZERO PUSH2 0x581 JUMPI PUSH1 0x0 DUP1 PUSH1 0x0 PUSH2 0x414 DUP16 DUP6 DUP2 MLOAD DUP2 LT PUSH2 0x407 JUMPI PUSH2 0x406 PUSH2 0xDF4 JUMP JUMPDEST JUMPDEST PUSH1 0x20 MUL PUSH1 0x20 ADD ADD MLOAD PUSH2 0x5C4 JUMP JUMPDEST SWAP3 POP SWAP3 POP SWAP3 POP PUSH1 0x0 PUSH1 0x1 DUP8 DUP6 DUP6 DUP6 PUSH1 0x40 MLOAD PUSH1 0x0 DUP2 MSTORE PUSH1 0x20 ADD PUSH1 0x40 MSTORE PUSH1 0x40 MLOAD PUSH2 0x43F SWAP5 SWAP4 SWAP3 SWAP2 SWAP1 PUSH2 0xE3F JUMP JUMPDEST PUSH1 0x20 PUSH1 0x40 MLOAD PUSH1 0x20 DUP2 SUB SWAP1 DUP1 DUP5 SUB SWAP1 DUP6 GAS STATICCALL ISZERO DUP1 ISZERO PUSH2 0x461 JUMPI RETURNDATASIZE PUSH1 0x0 DUP1 RETURNDATACOPY RETURNDATASIZE PUSH1 0x0 REVERT JUMPDEST POP POP POP PUSH1 0x20 PUSH1 0x40 MLOAD SUB MLOAD SWAP1 POP DUP6 PUSH20 0xFFFFFFFFFFFFFFFFFFFFFFFFFFFFFFFFFFFFFFFF AND DUP2 PUSH20 0xFFFFFFFFFFFFFFFFFFFFFFFFFFFFFFFFFFFFFFFF AND GT PUSH2 0x4DB JUMPI PUSH1 0x40 MLOAD PUSH32 0x8C379A000000000000000000000000000000000000000000000000000000000 DUP2 MSTORE PUSH1 0x4 ADD PUSH2 0x4D2 SWAP1 PUSH2 0xED0 JUMP JUMPDEST PUSH1 0x40 MLOAD DUP1 SWAP2 SUB SWAP1 REVERT JUMPDEST PUSH1 0x2 PUSH1 0x0 DUP3 PUSH20 0xFFFFFFFFFFFFFFFFFFFFFFFFFFFFFFFFFFFFFFFF AND PUSH20 0xFFFFFFFFFFFFFFFFFFFFFFFFFFFFFFFFFFFFFFFF AND DUP2 MSTORE PUSH1 0x20 ADD SWAP1 DUP2 MSTORE PUSH1 0x20 ADD PUSH1 0x0 KECCAK256 PUSH1 0x0 SWAP1 SLOAD SWAP1 PUSH2 0x100 EXP SWAP1 DIV PUSH1 0xFF AND PUSH2 0x567 JUMPI PUSH1 0x40 MLOAD PUSH32 0x8C379A000000000000000000000000000000000000000000000000000000000 DUP2 MSTORE PUSH1 0x4 ADD PUSH2 0x55E SWAP1 PUSH2 0xF3C JUMP JUMPDEST PUSH1 0x40 MLOAD DUP1 SWAP2 SUB SWAP1 REVERT JUMPDEST DUP1 SWAP6 POP POP POP POP POP DUP1 DUP1 PUSH2 0x579 SWAP1 PUSH2 0xF5C JUMP JUMPDEST SWAP2 POP POP PUSH2 0x3E2 JUMP JUMPDEST POP PUSH1 0x1 SWAP5 POP POP POP POP POP SWAP7 SWAP6 POP POP POP POP POP POP JUMP JUMPDEST PUSH1 0x0 DUP2 PUSH1 0x40 MLOAD PUSH1 0x20 ADD PUSH2 0x5A7 SWAP2 SWAP1 PUSH2 0xFF1 JUMP JUMPDEST PUSH1 0x40 MLOAD PUSH1 0x20 DUP2 DUP4 SUB SUB DUP2 MSTORE SWAP1 PUSH1 0x40 MSTORE DUP1 MLOAD SWAP1 PUSH1 0x20 ADD KECCAK256 SWAP1 POP SWAP2 SWAP1 POP JUMP JUMPDEST PUSH1 0x0 DUP1 PUSH1 0x0 PUSH1 0x41 DUP5 MLOAD EQ PUSH2 0x5D7 JUMPI PUSH1 0x0 DUP1 REVERT JUMPDEST PUSH1 0x20 DUP5 ADD MLOAD SWAP2 POP PUSH1 0x40 DUP5 ADD MLOAD SWAP1 POP PUSH1 0x60 DUP5 ADD MLOAD PUSH1 0x0 BYTE SWAP3 POP SWAP2 SWAP4 SWAP1 SWAP3 POP JUMP JUMPDEST PUSH1 0x0 DUP2 SWAP1 POP SWAP2 SWAP1 POP JUMP JUMPDEST PUSH2 0x609 DUP2 PUSH2 0x5F6 JUMP JUMPDEST DUP3 MSTORE POP POP JUMP JUMPDEST PUSH1 0x0 PUSH1 0x20 DUP3 ADD SWAP1 POP PUSH2 0x624 PUSH1 0x0 DUP4 ADD DUP5 PUSH2 0x600 JUMP JUMPDEST SWAP3 SWAP2 POP POP JUMP JUMPDEST PUSH1 0x0 DUP2 SWAP1 POP SWAP2 SWAP1 POP JUMP JUMPDEST PUSH2 0x63D DUP2 PUSH2 0x62A JUMP JUMPDEST DUP3 MSTORE POP POP JUMP JUMPDEST PUSH1 0x0 PUSH1 0x20 DUP3 ADD SWAP1 POP PUSH2 0x658 PUSH1 0x0 DUP4 ADD DUP5 PUSH2 0x634 JUMP JUMPDEST SWAP3 SWAP2 POP POP JUMP JUMPDEST PUSH1 0x0 PUSH1 0x40 MLOAD SWAP1 POP SWAP1 JUMP JUMPDEST PUSH1 0x0 DUP1 REVERT JUMPDEST PUSH1 0x0 DUP1 REVERT JUMPDEST PUSH2 0x67B DUP2 PUSH2 0x62A JUMP JUMPDEST DUP2 EQ PUSH2 0x686 JUMPI PUSH1 0x0 DUP1 REVERT JUMPDEST POP JUMP JUMPDEST PUSH1 0x0 DUP2 CALLDATALOAD SWAP1 POP PUSH2 0x698 DUP2 PUSH2 0x672 JUMP JUMPDEST SWAP3 SWAP2 POP POP JUMP JUMPDEST PUSH1 0x0 PUSH1 0x20 DUP3 DUP5 SUB SLT ISZERO PUSH2 0x6B4 JUMPI PUSH2 0x6B3 PUSH2 0x668 JUMP JUMPDEST JUMPDEST PUSH1 0x0 PUSH2 0x6C2 DUP5 DUP3 DUP6 ADD PUSH2 0x689 JUMP JUMPDEST SWAP2 POP POP SWAP3 SWAP2 POP POP JUMP JUMPDEST PUSH1 0x0 PUSH20 0xFFFFFFFFFFFFFFFFFFFFFFFFFFFFFFFFFFFFFFFF DUP3 AND SWAP1 POP SWAP2 SWAP1 POP JUMP JUMPDEST PUSH1 0x0 PUSH2 0x6F6 DUP3 PUSH2 0x6CB JUMP JUMPDEST SWAP1 POP SWAP2 SWAP1 POP JUMP JUMPDEST PUSH2 0x706 DUP2 PUSH2 0x6EB JUMP JUMPDEST DUP3 MSTORE POP POP JUMP JUMPDEST PUSH1 0x0 PUSH1 0x20 DUP3 ADD SWAP1 POP PUSH2 0x721 PUSH1 0x0 DUP4 ADD DUP5 PUSH2 0x6FD JUMP JUMPDEST SWAP3 SWAP2 POP POP JUMP JUMPDEST PUSH1 0x0 DUP1 REVERT JUMPDEST PUSH1 0x0 PUSH1 0x1F NOT PUSH1 0x1F DUP4 ADD AND SWAP1 POP SWAP2 SWAP1 POP JUMP JUMPDEST PUSH32 0x4E487B7100000000000000000000000000000000000000000000000000000000 PUSH1 0x0 MSTORE PUSH1 0x41 PUSH1 0x4 MSTORE PUSH1 0x24 PUSH1 0x0 REVERT JUMPDEST PUSH2 0x775 DUP3 PUSH2 0x72C JUMP JUMPDEST DUP2 ADD DUP2 DUP2 LT PUSH8 0xFFFFFFFFFFFFFFFF DUP3 GT OR ISZERO PUSH2 0x794 JUMPI PUSH2 0x793 PUSH2 0x73D JUMP JUMPDEST JUMPDEST DUP1 PUSH1 0x40 MSTORE POP POP POP JUMP JUMPDEST PUSH1 0x0 PUSH2 0x7A7 PUSH2 0x65E JUMP JUMPDEST SWAP1 POP PUSH2 0x7B3 DUP3 DUP3 PUSH2 0x76C JUMP JUMPDEST SWAP2 SWAP1 POP JUMP JUMPDEST PUSH1 0x0 PUSH8 0xFFFFFFFFFFFFFFFF DUP3 GT ISZERO PUSH2 0x7D3 JUMPI PUSH2 0x7D2 PUSH2 0x73D JUMP JUMPDEST JUMPDEST PUSH1 0x20 DUP3 MUL SWAP1 POP PUSH1 0x20 DUP2 ADD SWAP1 POP SWAP2 SWAP1 POP JUMP JUMPDEST PUSH1 0x0 DUP1 REVERT JUMPDEST PUSH1 0x0 DUP1 REVERT JUMPDEST PUSH1 0x0 PUSH8 0xFFFFFFFFFFFFFFFF DUP3 GT ISZERO PUSH2 0x809 JUMPI PUSH2 0x808 PUSH2 0x73D JUMP JUMPDEST JUMPDEST PUSH2 0x812 DUP3 PUSH2 0x72C JUMP JUMPDEST SWAP1 POP PUSH1 0x20 DUP2 ADD SWAP1 POP SWAP2 SWAP1 POP JUMP JUMPDEST DUP3 DUP2 DUP4 CALLDATACOPY PUSH1 0x0 DUP4 DUP4 ADD MSTORE POP POP POP JUMP JUMPDEST PUSH1 0x0 PUSH2 0x841 PUSH2 0x83C DUP5 PUSH2 0x7EE JUMP JUMPDEST PUSH2 0x79D JUMP JUMPDEST SWAP1 POP DUP3 DUP2 MSTORE PUSH1 0x20 DUP2 ADD DUP5 DUP5 DUP5 ADD GT ISZERO PUSH2 0x85D JUMPI PUSH2 0x85C PUSH2 0x7E9 JUMP JUMPDEST JUMPDEST PUSH2 0x868 DUP5 DUP3 DUP6 PUSH2 0x81F JUMP JUMPDEST POP SWAP4 SWAP3 POP POP POP JUMP JUMPDEST PUSH1 0x0 DUP3 PUSH1 0x1F DUP4 ADD SLT PUSH2 0x885 JUMPI PUSH2 0x884 PUSH2 0x727 JUMP JUMPDEST JUMPDEST DUP2 CALLDATALOAD PUSH2 0x895 DUP5 DUP3 PUSH1 0x20 DUP7 ADD PUSH2 0x82E JUMP JUMPDEST SWAP2 POP POP SWAP3 SWAP2 POP POP JUMP JUMPDEST PUSH1 0x0 PUSH2 0x8B1 PUSH2 0x8AC DUP5 PUSH2 0x7B8 JUMP JUMPDEST PUSH2 0x79D JUMP JUMPDEST SWAP1 POP DUP1 DUP4 DUP3 MSTORE PUSH1 0x20 DUP3 ADD SWAP1 POP PUSH1 0x20 DUP5 MUL DUP4 ADD DUP6 DUP2 GT ISZERO PUSH2 0x8D4 JUMPI PUSH2 0x8D3 PUSH2 0x7E4 JUMP JUMPDEST JUMPDEST DUP4 JUMPDEST DUP2 DUP2 LT ISZERO PUSH2 0x91B JUMPI DUP1 CALLDATALOAD PUSH8 0xFFFFFFFFFFFFFFFF DUP2 GT ISZERO PUSH2 0x8F9 JUMPI PUSH2 0x8F8 PUSH2 0x727 JUMP JUMPDEST JUMPDEST DUP1 DUP7 ADD PUSH2 0x906 DUP10 DUP3 PUSH2 0x870 JUMP JUMPDEST DUP6 MSTORE PUSH1 0x20 DUP6 ADD SWAP5 POP POP POP PUSH1 0x20 DUP2 ADD SWAP1 POP PUSH2 0x8D6 JUMP JUMPDEST POP POP POP SWAP4 SWAP3 POP POP POP JUMP JUMPDEST PUSH1 0x0 DUP3 PUSH1 0x1F DUP4 ADD SLT PUSH2 0x93A JUMPI PUSH2 0x939 PUSH2 0x727 JUMP JUMPDEST JUMPDEST DUP2 CALLDATALOAD PUSH2 0x94A DUP5 DUP3 PUSH1 0x20 DUP7 ADD PUSH2 0x89E JUMP JUMPDEST SWAP2 POP POP SWAP3 SWAP2 POP POP JUMP JUMPDEST PUSH2 0x95C DUP2 PUSH2 0x6EB JUMP JUMPDEST DUP2 EQ PUSH2 0x967 JUMPI PUSH1 0x0 DUP1 REVERT JUMPDEST POP JUMP JUMPDEST PUSH1 0x0 DUP2 CALLDATALOAD SWAP1 POP PUSH2 0x979 DUP2 PUSH2 0x953 JUMP JUMPDEST SWAP3 SWAP2 POP POP JUMP JUMPDEST PUSH1 0x0 DUP1 PUSH1 0x0 DUP1 PUSH1 0x0 DUP1 PUSH1 0xC0 DUP8 DUP10 SUB SLT ISZERO PUSH2 0x99C JUMPI PUSH2 0x99B PUSH2 0x668 JUMP JUMPDEST JUMPDEST PUSH1 0x0 DUP8 ADD CALLDATALOAD PUSH8 0xFFFFFFFFFFFFFFFF DUP2 GT ISZERO PUSH2 0x9BA JUMPI PUSH2 0x9B9 PUSH2 0x66D JUMP JUMPDEST JUMPDEST PUSH2 0x9C6 DUP10 DUP3 DUP11 ADD PUSH2 0x925 JUMP JUMPDEST SWAP7 POP POP PUSH1 0x20 PUSH2 0x9D7 DUP10 DUP3 DUP11 ADD PUSH2 0x96A JUMP JUMPDEST SWAP6 POP POP PUSH1 0x40 PUSH2 0x9E8 DUP10 DUP3 DUP11 ADD PUSH2 0x689 JUMP JUMPDEST SWAP5 POP POP PUSH1 0x60 DUP8 ADD CALLDATALOAD PUSH8 0xFFFFFFFFFFFFFFFF DUP2 GT ISZERO PUSH2 0xA09 JUMPI PUSH2 0xA08 PUSH2 0x66D JUMP JUMPDEST JUMPDEST PUSH2 0xA15 DUP10 DUP3 DUP11 ADD PUSH2 0x870 JUMP JUMPDEST SWAP4 POP POP PUSH1 0x80 PUSH2 0xA26 DUP10 DUP3 DUP11 ADD PUSH2 0x96A JUMP JUMPDEST SWAP3 POP POP PUSH1 0xA0 PUSH2 0xA37 DUP10 DUP3 DUP11 ADD PUSH2 0x689 JUMP JUMPDEST SWAP2 POP POP SWAP3 SWAP6 POP SWAP3 SWAP6 POP SWAP3 SWAP6 JUMP JUMPDEST PUSH1 0x0 DUP3 DUP3 MSTORE PUSH1 0x20 DUP3 ADD SWAP1 POP SWAP3 SWAP2 POP POP JUMP JUMPDEST PUSH32 0x657865637574653A20736967522E6C656E677468203D3D207468726573686F6C PUSH1 0x0 DUP3 ADD MSTORE PUSH32 0x6420000000000000000000000000000000000000000000000000000000000000 PUSH1 0x20 DUP3 ADD MSTORE POP JUMP JUMPDEST PUSH1 0x0 PUSH2 0xAB1 PUSH1 0x22 DUP4 PUSH2 0xA44 JUMP JUMPDEST SWAP2 POP PUSH2 0xABC DUP3 PUSH2 0xA55 JUMP JUMPDEST PUSH1 0x40 DUP3 ADD SWAP1 POP SWAP2 SWAP1 POP JUMP JUMPDEST PUSH1 0x0 PUSH1 0x20 DUP3 ADD SWAP1 POP DUP2 DUP2 SUB PUSH1 0x0 DUP4 ADD MSTORE PUSH2 0xAE0 DUP2 PUSH2 0xAA4 JUMP JUMPDEST SWAP1 POP SWAP2 SWAP1 POP JUMP JUMPDEST PUSH32 0x657865637574653A206578656375746F72203D3D206D73672E73656E64657220 PUSH1 0x0 DUP3 ADD MSTORE PUSH32 0x7C7C206578656375746F72203D3D206164647265737328302900000000000000 PUSH1 0x20 DUP3 ADD MSTORE POP JUMP JUMPDEST PUSH1 0x0 PUSH2 0xB43 PUSH1 0x39 DUP4 PUSH2 0xA44 JUMP JUMPDEST SWAP2 POP PUSH2 0xB4E DUP3 PUSH2 0xAE7 JUMP JUMPDEST PUSH1 0x40 DUP3 ADD SWAP1 POP SWAP2 SWAP1 POP JUMP JUMPDEST PUSH1 0x0 PUSH1 0x20 DUP3 ADD SWAP1 POP DUP2 DUP2 SUB PUSH1 0x0 DUP4 ADD MSTORE PUSH2 0xB72 DUP2 PUSH2 0xB36 JUMP JUMPDEST SWAP1 POP SWAP2 SWAP1 POP JUMP JUMPDEST PUSH32 0x657865637574653A207265636F7665724D756C7469203D3D2066616C73650000 PUSH1 0x0 DUP3 ADD MSTORE POP JUMP JUMPDEST PUSH1 0x0 PUSH2 0xBAF PUSH1 0x1E DUP4 PUSH2 0xA44 JUMP JUMPDEST SWAP2 POP PUSH2 0xBBA DUP3 PUSH2 0xB79 JUMP JUMPDEST PUSH1 0x20 DUP3 ADD SWAP1 POP SWAP2 SWAP1 POP JUMP JUMPDEST PUSH1 0x0 PUSH1 0x20 DUP3 ADD SWAP1 POP DUP2 DUP2 SUB PUSH1 0x0 DUP4 ADD MSTORE PUSH2 0xBDE DUP2 PUSH2 0xBA2 JUMP JUMPDEST SWAP1 POP SWAP2 SWAP1 POP JUMP JUMPDEST PUSH32 0x4E487B7100000000000000000000000000000000000000000000000000000000 PUSH1 0x0 MSTORE PUSH1 0x11 PUSH1 0x4 MSTORE PUSH1 0x24 PUSH1 0x0 REVERT JUMPDEST PUSH1 0x0 PUSH2 0xC1F DUP3 PUSH2 0x62A JUMP JUMPDEST SWAP2 POP PUSH2 0xC2A DUP4 PUSH2 0x62A JUMP JUMPDEST SWAP3 POP DUP3 PUSH32 0xFFFFFFFFFFFFFFFFFFFFFFFFFFFFFFFFFFFFFFFFFFFFFFFFFFFFFFFFFFFFFFFF SUB DUP3 GT ISZERO PUSH2 0xC5F JUMPI PUSH2 0xC5E PUSH2 0xBE5 JUMP JUMPDEST JUMPDEST DUP3 DUP3 ADD SWAP1 POP SWAP3 SWAP2 POP POP JUMP JUMPDEST PUSH32 0x657865637574653A207375636365737320000000000000000000000000000000 PUSH1 0x0 DUP3 ADD MSTORE POP JUMP JUMPDEST PUSH1 0x0 PUSH2 0xCA0 PUSH1 0x11 DUP4 PUSH2 0xA44 JUMP JUMPDEST SWAP2 POP PUSH2 0xCAB DUP3 PUSH2 0xC6A JUMP JUMPDEST PUSH1 0x20 DUP3 ADD SWAP1 POP SWAP2 SWAP1 POP JUMP JUMPDEST PUSH1 0x0 PUSH1 0x20 DUP3 ADD SWAP1 POP DUP2 DUP2 SUB PUSH1 0x0 DUP4 ADD MSTORE PUSH2 0xCCF DUP2 PUSH2 0xC93 JUMP JUMPDEST SWAP1 POP SWAP2 SWAP1 POP JUMP JUMPDEST PUSH1 0x0 PUSH1 0xE0 DUP3 ADD SWAP1 POP PUSH2 0xCEB PUSH1 0x0 DUP4 ADD DUP11 PUSH2 0x600 JUMP JUMPDEST PUSH2 0xCF8 PUSH1 0x20 DUP4 ADD DUP10 PUSH2 0x6FD JUMP JUMPDEST PUSH2 0xD05 PUSH1 0x40 DUP4 ADD DUP9 PUSH2 0x634 JUMP JUMPDEST PUSH2 0xD12 PUSH1 0x60 DUP4 ADD DUP8 PUSH2 0x600 JUMP JUMPDEST PUSH2 0xD1F PUSH1 0x80 DUP4 ADD DUP7 PUSH2 0x634 JUMP JUMPDEST PUSH2 0xD2C PUSH1 0xA0 DUP4 ADD DUP6 PUSH2 0x6FD JUMP JUMPDEST PUSH2 0xD39 PUSH1 0xC0 DUP4 ADD DUP5 PUSH2 0x634 JUMP JUMPDEST SWAP9 SWAP8 POP POP POP POP POP POP POP POP JUMP JUMPDEST PUSH1 0x0 DUP2 SWAP1 POP SWAP3 SWAP2 POP POP JUMP JUMPDEST PUSH32 0x1901000000000000000000000000000000000000000000000000000000000000 PUSH1 0x0 DUP3 ADD MSTORE POP JUMP JUMPDEST PUSH1 0x0 PUSH2 0xD86 PUSH1 0x2 DUP4 PUSH2 0xD45 JUMP JUMPDEST SWAP2 POP PUSH2 0xD91 DUP3 PUSH2 0xD50 JUMP JUMPDEST PUSH1 0x2 DUP3 ADD SWAP1 POP SWAP2 SWAP1 POP JUMP JUMPDEST PUSH1 0x0 DUP2 SWAP1 POP SWAP2 SWAP1 POP JUMP JUMPDEST PUSH2 0xDB7 PUSH2 0xDB2 DUP3 PUSH2 0x5F6 JUMP JUMPDEST PUSH2 0xD9C JUMP JUMPDEST DUP3 MSTORE POP POP JUMP JUMPDEST PUSH1 0x0 PUSH2 0xDC8 DUP3 PUSH2 0xD79 JUMP JUMPDEST SWAP2 POP PUSH2 0xDD4 DUP3 DUP6 PUSH2 0xDA6 JUMP JUMPDEST PUSH1 0x20 DUP3 ADD SWAP2 POP PUSH2 0xDE4 DUP3 DUP5 PUSH2 0xDA6 JUMP JUMPDEST PUSH1 0x20 DUP3 ADD SWAP2 POP DUP2 SWAP1 POP SWAP4 SWAP3 POP POP POP JUMP JUMPDEST PUSH32 0x4E487B7100000000000000000000000000000000000000000000000000000000 PUSH1 0x0 MSTORE PUSH1 0x32 PUSH1 0x4 MSTORE PUSH1 0x24 PUSH1 0x0 REVERT JUMPDEST PUSH1 0x0 PUSH1 0xFF DUP3 AND SWAP1 POP SWAP2 SWAP1 POP JUMP JUMPDEST PUSH2 0xE39 DUP2 PUSH2 0xE23 JUMP JUMPDEST DUP3 MSTORE POP POP JUMP JUMPDEST PUSH1 0x0 PUSH1 0x80 DUP3 ADD SWAP1 POP PUSH2 0xE54 PUSH1 0x0 DUP4 ADD DUP8 PUSH2 0x600 JUMP JUMPDEST PUSH2 0xE61 PUSH1 0x20 DUP4 ADD DUP7 PUSH2 0xE30 JUMP JUMPDEST PUSH2 0xE6E PUSH1 0x40 DUP4 ADD DUP6 PUSH2 0x600 JUMP JUMPDEST PUSH2 0xE7B PUSH1 0x60 DUP4 ADD DUP5 PUSH2 0x600 JUMP JUMPDEST SWAP6 SWAP5 POP POP POP POP POP JUMP JUMPDEST PUSH32 0x657865637574653A207265636F7665726564203E206C61737441646420000000 PUSH1 0x0 DUP3 ADD MSTORE POP JUMP JUMPDEST PUSH1 0x0 PUSH2 0xEBA PUSH1 0x1D DUP4 PUSH2 0xA44 JUMP JUMPDEST SWAP2 POP PUSH2 0xEC5 DUP3 PUSH2 0xE84 JUMP JUMPDEST PUSH1 0x20 DUP3 ADD SWAP1 POP SWAP2 SWAP1 POP JUMP JUMPDEST PUSH1 0x0 PUSH1 0x20 DUP3 ADD SWAP1 POP DUP2 DUP2 SUB PUSH1 0x0 DUP4 ADD MSTORE PUSH2 0xEE9 DUP2 PUSH2 0xEAD JUMP JUMPDEST SWAP1 POP SWAP2 SWAP1 POP JUMP JUMPDEST PUSH32 0x657865637574653A2069734F776E65725B7265636F76657265645D0000000000 PUSH1 0x0 DUP3 ADD MSTORE POP JUMP JUMPDEST PUSH1 0x0 PUSH2 0xF26 PUSH1 0x1B DUP4 PUSH2 0xA44 JUMP JUMPDEST SWAP2 POP PUSH2 0xF31 DUP3 PUSH2 0xEF0 JUMP JUMPDEST PUSH1 0x20 DUP3 ADD SWAP1 POP SWAP2 SWAP1 POP JUMP JUMPDEST PUSH1 0x0 PUSH1 0x20 DUP3 ADD SWAP1 POP DUP2 DUP2 SUB PUSH1 0x0 DUP4 ADD MSTORE PUSH2 0xF55 DUP2 PUSH2 0xF19 JUMP JUMPDEST SWAP1 POP SWAP2 SWAP1 POP JUMP JUMPDEST PUSH1 0x0 PUSH2 0xF67 DUP3 PUSH2 0x62A JUMP JUMPDEST SWAP2 POP PUSH32 0xFFFFFFFFFFFFFFFFFFFFFFFFFFFFFFFFFFFFFFFFFFFFFFFFFFFFFFFFFFFFFFFF DUP3 EQ ISZERO PUSH2 0xF9A JUMPI PUSH2 0xF99 PUSH2 0xBE5 JUMP JUMPDEST JUMPDEST PUSH1 0x1 DUP3 ADD SWAP1 POP SWAP2 SWAP1 POP JUMP JUMPDEST PUSH32 0x19457468657265756D205369676E6564204D6573736167653A0A333200000000 PUSH1 0x0 DUP3 ADD MSTORE POP JUMP JUMPDEST PUSH1 0x0 PUSH2 0xFDB PUSH1 0x1C DUP4 PUSH2 0xD45 JUMP JUMPDEST SWAP2 POP PUSH2 0xFE6 DUP3 PUSH2 0xFA5 JUMP JUMPDEST PUSH1 0x1C DUP3 ADD SWAP1 POP SWAP2 SWAP1 POP JUMP JUMPDEST PUSH1 0x0 PUSH2 0xFFC DUP3 PUSH2 0xFCE JUMP JUMPDEST SWAP2 POP PUSH2 0x1008 DUP3 DUP5 PUSH2 0xDA6 JUMP JUMPDEST PUSH1 0x20 DUP3 ADD SWAP2 POP DUP2 SWAP1 POP SWAP3 SWAP2 POP POP JUMP INVALID LOG2 PUSH5 0x6970667358 0x22 SLT KECCAK256 CALLDATALOAD SWAP6 SWAP8 0xE 0xE ADD 0x24 0xE SWAP10 0xB8 0xA5 0xD0 DUP8 DUP11 0xC9 RETURNDATASIZE SWAP11 0xC1 0x26 DUP13 DIV 0x4E JUMPDEST JUMPI LOG3 JUMP MULMOD 0x25 0xB0 TIMESTAMP SWAP11 0xD3 PUSH5 0x736F6C6343 STOP ADDMOD 0xC STOP CALLER "
        },
        "methodIdentifiers": {
          "DOMAIN_SEPARATOR()": "3644e515",
          "execute(bytes[],address,uint256,bytes,address,uint256)": "e1914eba",
          "nonce()": "affed0e0",
          "ownersArr(uint256)": "aa5df9e2",
          "threshold()": "42cde4e8"
        }
      }
    }
  }
}