{
  "_format": "hh-sol-artifact-1",
  "contractName": "SimpleMultiSig",
  "sourceName": "contracts/SimpleMultiSig.sol",
  "abi": [
    {
      "inputs": [
        {
          "internalType": "uint256",
          "name": "threshold_",
          "type": "uint256"
        },
        {
          "internalType": "address[]",
          "name": "owners_",
          "type": "address[]"
        },
        {
          "internalType": "uint256",
          "name": "chainId",
          "type": "uint256"
        }
      ],
      "stateMutability": "nonpayable",
      "type": "constructor"
    },
    {
      "inputs": [],
      "name": "DOMAIN_SEPARATOR",
      "outputs": [
        {
          "internalType": "bytes32",
          "name": "",
          "type": "bytes32"
        }
      ],
      "stateMutability": "view",
      "type": "function"
    },
    {
      "inputs": [
        {
          "internalType": "bytes[]",
          "name": "sig",
          "type": "bytes[]"
        },
        {
          "internalType": "address",
          "name": "destination",
          "type": "address"
        },
        {
          "internalType": "uint256",
          "name": "value",
          "type": "uint256"
        },
        {
          "internalType": "bytes",
          "name": "data",
          "type": "bytes"
        },
        {
          "internalType": "address",
          "name": "executor",
          "type": "address"
        },
        {
          "internalType": "uint256",
          "name": "gasLimit",
          "type": "uint256"
        }
      ],
      "name": "execute",
      "outputs": [],
      "stateMutability": "nonpayable",
      "type": "function"
    },
    {
      "inputs": [],
      "name": "nonce",
      "outputs": [
        {
          "internalType": "uint256",
          "name": "",
          "type": "uint256"
        }
      ],
      "stateMutability": "view",
      "type": "function"
    },
    {
      "inputs": [
        {
          "internalType": "uint256",
          "name": "",
          "type": "uint256"
        }
      ],
      "name": "ownersArr",
      "outputs": [
        {
          "internalType": "address",
          "name": "",
          "type": "address"
        }
      ],
      "stateMutability": "view",
      "type": "function"
    },
    {
      "inputs": [],
      "name": "threshold",
      "outputs": [
        {
          "internalType": "uint256",
          "name": "",
          "type": "uint256"
        }
      ],
      "stateMutability": "view",
      "type": "function"
    },
    {
      "stateMutability": "payable",
      "type": "receive"
    }
  ],
  "bytecode": "0x60806040523480156200001157600080fd5b50604051620017c0380380620017c0833981810160405281019062000037919062000538565b600a8251111580156200004b575081518311155b8015620000585750600083115b6200006257600080fd5b6000805b835181101562000171578173ffffffffffffffffffffffffffffffffffffffff168482815181106200009d576200009c620005b3565b5b602002602001015173ffffffffffffffffffffffffffffffffffffffff1611620000c657600080fd5b600160026000868481518110620000e257620000e1620005b3565b5b602002602001015173ffffffffffffffffffffffffffffffffffffffff1673ffffffffffffffffffffffffffffffffffffffff16815260200190815260200160002060006101000a81548160ff021916908315150217905550838181518110620001515762000150620005b3565b5b602002602001015191508080620001689062000611565b91505062000066565b5082600390805190602001906200018a92919062000261565b50836001819055507fd87cd6ef79d4e2b95e15ce8abf732db51ec771f1ca2edccf22a46c729ac5647260001b7fb7a0bfa1b79f2443f4d73ebb9259cddbcd510b18be6fc4da7d1aa7b1786e73e660001b7fc89efdaa54c0f20c7adf612882df0950f5a951637e0307cdcb4c672f298b8bc660001b84307f251543af6a222378665a76fe38dbceae4871a070b7fdaf5c6c30cf758dc33cc060001b6040516020016200023b96959493929190620006f6565b604051602081830303815290604052805190602001206004819055505050505062000763565b828054828255906000526020600020908101928215620002dd579160200282015b82811115620002dc5782518260006101000a81548173ffffffffffffffffffffffffffffffffffffffff021916908373ffffffffffffffffffffffffffffffffffffffff1602179055509160200191906001019062000282565b5b509050620002ec9190620002f0565b5090565b5b808211156200030b576000816000905550600101620002f1565b5090565b6000604051905090565b600080fd5b600080fd5b6000819050919050565b620003388162000323565b81146200034457600080fd5b50565b60008151905062000358816200032d565b92915050565b600080fd5b6000601f19601f8301169050919050565b7f4e487b7100000000000000000000000000000000000000000000000000000000600052604160045260246000fd5b620003ae8262000363565b810181811067ffffffffffffffff82111715620003d057620003cf62000374565b5b80604052505050565b6000620003e56200030f565b9050620003f38282620003a3565b919050565b600067ffffffffffffffff82111562000416576200041562000374565b5b602082029050602081019050919050565b600080fd5b600073ffffffffffffffffffffffffffffffffffffffff82169050919050565b600062000459826200042c565b9050919050565b6200046b816200044c565b81146200047757600080fd5b50565b6000815190506200048b8162000460565b92915050565b6000620004a8620004a284620003f8565b620003d9565b90508083825260208201905060208402830185811115620004ce57620004cd62000427565b5b835b81811015620004fb5780620004e688826200047a565b845260208401935050602081019050620004d0565b5050509392505050565b600082601f8301126200051d576200051c6200035e565b5b81516200052f84826020860162000491565b91505092915050565b60008060006060848603121562000554576200055362000319565b5b6000620005648682870162000347565b935050602084015167ffffffffffffffff8111156200058857620005876200031e565b5b620005968682870162000505565b9250506040620005a98682870162000347565b9150509250925092565b7f4e487b7100000000000000000000000000000000000000000000000000000000600052603260045260246000fd5b7f4e487b7100000000000000000000000000000000000000000000000000000000600052601160045260246000fd5b60006200061e8262000323565b91507fffffffffffffffffffffffffffffffffffffffffffffffffffffffffffffffff821415620006545762000653620005e2565b5b600182019050919050565b6000819050919050565b62000674816200065f565b82525050565b620006858162000323565b82525050565b6000819050919050565b6000620006b6620006b0620006aa846200042c565b6200068b565b6200042c565b9050919050565b6000620006ca8262000695565b9050919050565b6000620006de82620006bd565b9050919050565b620006f081620006d1565b82525050565b600060c0820190506200070d600083018962000669565b6200071c602083018862000669565b6200072b604083018762000669565b6200073a60608301866200067a565b620007496080830185620006e5565b6200075860a083018462000669565b979650505050505050565b61104d80620007736000396000f3fe60806040526004361061004e5760003560e01c80633644e5151461005a57806342cde4e814610085578063aa5df9e2146100b0578063affed0e0146100ed578063e1914eba1461011857610055565b3661005557005b600080fd5b34801561006657600080fd5b5061006f610141565b60405161007c919061060f565b60405180910390f35b34801561009157600080fd5b5061009a610147565b6040516100a79190610643565b60405180910390f35b3480156100bc57600080fd5b506100d760048036038101906100d2919061069e565b61014d565b6040516100e4919061070c565b60405180910390f35b3480156100f957600080fd5b5061010261018c565b60405161010f9190610643565b60405180910390f35b34801561012457600080fd5b5061013f600480360381019061013a919061097f565b610192565b005b60045481565b60015481565b6003818154811061015d57600080fd5b906000526020600020016000915054906101000a900473ffffffffffffffffffffffffffffffffffffffff1681565b60005481565b6001548651146101d7576040517f08c379a00000000000000000000000000000000000000000000000000000000081526004016101ce90610ac7565b60405180910390fd5b3373ffffffffffffffffffffffffffffffffffffffff168273ffffffffffffffffffffffffffffffffffffffff16148061023d5750600073ffffffffffffffffffffffffffffffffffffffff168273ffffffffffffffffffffffffffffffffffffffff16145b61027c576040517f08c379a000000000000000000000000000000000000000000000000000000000815260040161027390610b59565b60405180910390fd5b6001151561028e87878787878761033e565b1515146102d0576040517f08c379a00000000000000000000000000000000000000000000000000000000081526004016102c790610bc5565b60405180910390fd5b60016000546102df9190610c14565b60008190555060008080855160208701888a87f1905080610335576040517f08c379a000000000000000000000000000000000000000000000000000000000815260040161032c90610cb6565b60405180910390fd5b50505050505050565b6000807f3ee892349ae4bbe61dce18f95115b5dc02daf49204cc602458cd4c1f540d56d760001b87878780519060200120600054888860405160200161038a9796959493929190610cd6565b6040516020818303038152906040528051906020012090506000600454826040516020016103b9929190610dbd565b60405160208183030381529060405280519060200120905060006103dc82610594565b90506000805b6001548110156105815760008060006104148f858151811061040757610406610df4565b5b60200260200101516105c4565b92509250925060006001878585856040516000815260200160405260405161043f9493929190610e3f565b6020604051602081039080840390855afa158015610461573d6000803e3d6000fd5b5050506020604051035190508573ffffffffffffffffffffffffffffffffffffffff168173ffffffffffffffffffffffffffffffffffffffff16116104db576040517f08c379a00000000000000000000000000000000000000000000000000000000081526004016104d290610ed0565b60405180910390fd5b600260008273ffffffffffffffffffffffffffffffffffffffff1673ffffffffffffffffffffffffffffffffffffffff16815260200190815260200160002060009054906101000a900460ff16610567576040517f08c379a000000000000000000000000000000000000000000000000000000000815260040161055e90610f3c565b60405180910390fd5b80955050505050808061057990610f5c565b9150506103e2565b5060019450505050509695505050505050565b6000816040516020016105a79190610ff1565b604051602081830303815290604052805190602001209050919050565b600080600060418451146105d757600080fd5b6020840151915060408401519050606084015160001a92509193909250565b6000819050919050565b610609816105f6565b82525050565b60006020820190506106246000830184610600565b92915050565b6000819050919050565b61063d8161062a565b82525050565b60006020820190506106586000830184610634565b92915050565b6000604051905090565b600080fd5b600080fd5b61067b8161062a565b811461068657600080fd5b50565b60008135905061069881610672565b92915050565b6000602082840312156106b4576106b3610668565b5b60006106c284828501610689565b91505092915050565b600073ffffffffffffffffffffffffffffffffffffffff82169050919050565b60006106f6826106cb565b9050919050565b610706816106eb565b82525050565b600060208201905061072160008301846106fd565b92915050565b600080fd5b6000601f19601f8301169050919050565b7f4e487b7100000000000000000000000000000000000000000000000000000000600052604160045260246000fd5b6107758261072c565b810181811067ffffffffffffffff821117156107945761079361073d565b5b80604052505050565b60006107a761065e565b90506107b3828261076c565b919050565b600067ffffffffffffffff8211156107d3576107d261073d565b5b602082029050602081019050919050565b600080fd5b600080fd5b600067ffffffffffffffff8211156108095761080861073d565b5b6108128261072c565b9050602081019050919050565b82818337600083830152505050565b600061084161083c846107ee565b61079d565b90508281526020810184848401111561085d5761085c6107e9565b5b61086884828561081f565b509392505050565b600082601f83011261088557610884610727565b5b813561089584826020860161082e565b91505092915050565b60006108b16108ac846107b8565b61079d565b905080838252602082019050602084028301858111156108d4576108d36107e4565b5b835b8181101561091b57803567ffffffffffffffff8111156108f9576108f8610727565b5b8086016109068982610870565b855260208501945050506020810190506108d6565b5050509392505050565b600082601f83011261093a57610939610727565b5b813561094a84826020860161089e565b91505092915050565b61095c816106eb565b811461096757600080fd5b50565b60008135905061097981610953565b92915050565b60008060008060008060c0878903121561099c5761099b610668565b5b600087013567ffffffffffffffff8111156109ba576109b961066d565b5b6109c689828a01610925565b96505060206109d789828a0161096a565b95505060406109e889828a01610689565b945050606087013567ffffffffffffffff811115610a0957610a0861066d565b5b610a1589828a01610870565b9350506080610a2689828a0161096a565b92505060a0610a3789828a01610689565b9150509295509295509295565b600082825260208201905092915050565b7f657865637574653a20736967522e6c656e677468203d3d207468726573686f6c60008201527f6420000000000000000000000000000000000000000000000000000000000000602082015250565b6000610ab1602283610a44565b9150610abc82610a55565b604082019050919050565b60006020820190508181036000830152610ae081610aa4565b9050919050565b7f657865637574653a206578656375746f72203d3d206d73672e73656e6465722060008201527f7c7c206578656375746f72203d3d206164647265737328302900000000000000602082015250565b6000610b43603983610a44565b9150610b4e82610ae7565b604082019050919050565b60006020820190508181036000830152610b7281610b36565b9050919050565b7f657865637574653a207265636f7665724d756c7469203d3d2066616c73650000600082015250565b6000610baf601e83610a44565b9150610bba82610b79565b602082019050919050565b60006020820190508181036000830152610bde81610ba2565b9050919050565b7f4e487b7100000000000000000000000000000000000000000000000000000000600052601160045260246000fd5b6000610c1f8261062a565b9150610c2a8361062a565b9250827fffffffffffffffffffffffffffffffffffffffffffffffffffffffffffffffff03821115610c5f57610c5e610be5565b5b828201905092915050565b7f657865637574653a207375636365737320000000000000000000000000000000600082015250565b6000610ca0601183610a44565b9150610cab82610c6a565b602082019050919050565b60006020820190508181036000830152610ccf81610c93565b9050919050565b600060e082019050610ceb600083018a610600565b610cf860208301896106fd565b610d056040830188610634565b610d126060830187610600565b610d1f6080830186610634565b610d2c60a08301856106fd565b610d3960c0830184610634565b98975050505050505050565b600081905092915050565b7f1901000000000000000000000000000000000000000000000000000000000000600082015250565b6000610d86600283610d45565b9150610d9182610d50565b600282019050919050565b6000819050919050565b610db7610db2826105f6565b610d9c565b82525050565b6000610dc882610d79565b9150610dd48285610da6565b602082019150610de48284610da6565b6020820191508190509392505050565b7f4e487b7100000000000000000000000000000000000000000000000000000000600052603260045260246000fd5b600060ff82169050919050565b610e3981610e23565b82525050565b6000608082019050610e546000830187610600565b610e616020830186610e30565b610e6e6040830185610600565b610e7b6060830184610600565b95945050505050565b7f657865637574653a207265636f7665726564203e206c61737441646420000000600082015250565b6000610eba601d83610a44565b9150610ec582610e84565b602082019050919050565b60006020820190508181036000830152610ee981610ead565b9050919050565b7f657865637574653a2069734f776e65725b7265636f76657265645d0000000000600082015250565b6000610f26601b83610a44565b9150610f3182610ef0565b602082019050919050565b60006020820190508181036000830152610f5581610f19565b9050919050565b6000610f678261062a565b91507fffffffffffffffffffffffffffffffffffffffffffffffffffffffffffffffff821415610f9a57610f99610be5565b5b600182019050919050565b7f19457468657265756d205369676e6564204d6573736167653a0a333200000000600082015250565b6000610fdb601c83610d45565b9150610fe682610fa5565b601c82019050919050565b6000610ffc82610fce565b91506110088284610da6565b6020820191508190509291505056fea26469706673582212203595970e0e01240e99b8a5d0878ac93d9ac1268c044e5b57a3560925b0429ad364736f6c634300080c0033",
  "linkReferences": {},
  "deployedLinkReferences": {}
}